:020000040020DA
:10400000F87F00201D412000F9862000F98620005D
:10401000F9862000F9862000F9862000F986200024
:10402000F9862000F9862000F9862000F986200014
:10403000F9862000F9862000F9862000F986200004
:10404000F9862000F9862000F9862000F9862000F4
:10405000F9862000F9862000F9862000F9862000E4
:10406000F9862000F9862000F9862000F9862000D4
:10407000F9862000F9862000F9862000F9862000C4
:10408000F9862000F9862000F9862000F9862000B4
:10409000F9862000F9862000F9862000F9862000A4
:1040A000F9862000F9862000F9862000F986200094
:1040B000F9862000F9862000F9862000F986200084
:1040C000F9862000F9862000F9862000F986200074
:1040D000F9862000F9862000F9862000F986200064
:1040E000F9862000F9862000F9862000F986200054
:1040F000F9862000F986200010B5074C54F8043CDE
:10410000B3F1FF3F06D0043C984754F8043DB3F1A7
:0C411000FF3FF9D110BD00BFAC962000AD
:10411C0040400949094A086004319142FBDBFFF732
:10412C00E5FF00BF00F0F2F900F04AFA01B404F028
:10413C0043FE01F0C5FB000008000020FC0100203C
:10414C00F0B5CB6881B004460D461746002B2DD038
:10415C0023602B68002623616B68666123622A69E1
:10416C00A661E4616662A66205F10801204603F0CF
:10417C00F3F82B69A2686660D218A2F140034FF0E5
:10418C00807142F8401C0B4A01A942F001029A636B
:10419C0047F00102DA63204641F8047DE36069468A
:1041AC004FF4806203F0E2FC01B0F0BD024B1B68DF
:1041BC00CEE700BFC1582000A0000020294B30B52D
:1041CC00186844682246002C47D063683F2B07D8F8
:1041DC00302B11D0D268002A3FD053683F2BF7D92F
:1041EC00303B5360C1683039C16053B11268302123
:1041FC00D018D150043030BD00235360C168303921
:10420C00C160016801290BD0956875B1D468BCB147
:10421C00EC60D2F80CC00139CCF808500160E5E72D
:10422C000021416081600160E0E70029DED0D4F814
:10423C000CC00139C0F804C00160CCF80850D5E7B7
:10424C000029D3D0D0F808C00139DCF808C00160CF
:10425C00C0F808C0CCF80C40C8E701F091FB002076
:10426C00C9E700BF74000020F0B52C4B9CB01C6853
:10427C00002C27D000241A941A9B4FF480671193BA
:10428C001094129413941497FFF798FF10A9244AD2
:10429C000546FFF755FF6FF000431B931B9B012650
:1042AC0016931596179418941997FFF787FF15A96D
:1042BC001C4AFFF745FF1C4BE8681E7004F038FCE5
:1042CC001CB0F0BD194D01232B72194801F000FBF5
:1042DC00184801F0FDFA184801F0FAFA174801F0F5
:1042EC00F7FA174801F0F4FA164801F0F1FA1648FB
:1042FC0001F0EEFA18216A462346284601F044FBE9
:10430C001CAB181800F8704C684601F0E1FA0F4825
:10431C0001F0DEFA0A232B60ACE700BF040000209A
:10432C003041200001762000C40000204C00002009
:10433C00EC8D2000008E2000048E2000788E200052
:10434C00108E2000188E2000708E20002C8F2000E4
:10435C002DE9F0076B4E7368002B76D05968002955
:10436C0073D0DFF8A481B24600270022D8F80050A1
:10437C005A60F268521AF2605A68BAB9DAF8004018
:10438C00012C76D09868002800F09B80D3F80CC0E4
:10439C00BCF1000F00F0A580C0F80CC0DA6890608A
:1043AC00DAF80020013ACAF800205A681C68A418F0
:1043BC0049D00F2947D961602460A760E760EB689A
:1043CC0059186B68E960D4F800C06068002B40D0C5
:1043DC00D3F80090604448450CBF1A461A4604D0E6
:1043EC00D26812B111688842FAD159688944CC4517
:1043FC0007D0DB68002B2BD01868596841188C4506
:10440C00F7D119461346CBB160685A6882186260BE
:10441C002868012802BF6F60AF602F600ED09A68C9
:10442C00002A2ED0D3F80CC0BCF1000F33D0C2F848
:10443C000CC0DB689A602B68013B2B6019B14A6891
:10444C006368D3184B60736873B9BDE8F0077047A5
:10445C0013462968002929D1A160E1602A686C60A3
:10446C000132AC602A60CEE7596800297FF47DAF39
:10447C00EBE7CAF80420CAF80820CAF800205A68EA
:10448C0094E70028DAD06B68DB686B609A602B6865
:10449C00013B2B60D2E70028D0D0AB689B68AB60A7
:1044AC00C3F80CC02B68013B2B60C7E7AA683946E0
:1044BC00D460AA68E760A2602A68AC6001322A6006
:1044CC00A1E7002C3FF472AFDAF80400C068CAF818
:1044DC0004008260DAF80020013ACAF800205A6819
:1044EC0064E7002C3FF462AFDAF808008068CAF881
:1044FC000800C260DAF80020013ACAF800205A68B5
:10450C0054E700BFEC01002074000020704700BF8E
:10451C0040F21C03C2F200030A204FF0FF310022CC
:10452C00596018601A7240F21003C2F2000359600D
:10453C0018601A72704700BF40F22803C2F20003E1
:10454C000A221A604FF0FF325A6000221A7270472A
:10455C0010B50D4C0D4801F0BBF9E368206901332F
:10456C00E36002F09BFAE368132B04DC02F0C2FF59
:10457C00E368132BFADD206902F04AFB044801F0D2
:10458C00A7F9002010BD00BF28000020C88E200015
:10459C00D08E2000F0B548F2A06582B0002401AFA7
:1045AC006E46C0F2010538460195013401F0E2FE79
:1045BC006846009501F0DEFE0F2CF4D102B0F0BD80
:1045CC002DE9F04FDFF8E0B199B0FFF7E3FF774842
:1045DC0001F07EF9DBF8000043683BB15A682B2AE6
:1045EC0008D81C2A06D0DB68002BF7D101F0C8F9DB
:1045FC0000241EE01C3A5A60C2681C3AC2605A6819
:10460C0092B90468012C00F0B1809968002900F07F
:10461C00B280DD68002D00F0BA80CD60DA68916060
:10462C000268013A02605A681B681C219C18995058
:10463C0004340121204601F0C1FE5D4B00262661A9
:10464C006661DFF870911C615B4B49F0010143F02E
:10465C000103DFF868A10193009102AF35464FF0DA
:10466C000108DBF8000043683BB15A683F2A08D8C0
:10467C00302A06D0DB68002BF7D101F081F9002439
:10468C001EE0303A5A60C268303AC2605A6892B939
:10469C000468012C4FD09968002951D0D3F80CC074
:1046AC00BCF1000F57D0C1F80CC0DA6891600268F9
:1046BC00013A02605A681B6830219C1899500434E6
:1046CC00DAF80030C4F810802360A561656065617C
:1046DC00CDF86080E461189B204623626562A56278
:1046EC0016A94FF48062169502F036FEA26802F508
:1046FC0070734FF08071C2F8C013019A20469A6310
:10470C0000994FF48062D963E36017A9CDF85C90EF
:10471C0003F02CFABC510436502EA2D17859043532
:10472C0003F0E4F8502DF9D1254801F0D1F8002020
:10473C0019B0BDE8F08F4260826002605A68BAE737
:10474C00002CB8D04168C96841608A600268013A9F
:10475C0002605A68AFE7002CADD08168896881602F
:10476C00CA600268013A02605A68A4E7426082603B
:10477C0002605A6858E7002C3FF456AF4168C9688C
:10478C0041608A600268013A02605A684CE7002C6A
:10479C003FF44AAF816889688160CA600268013A57
:1047AC0002605A6840E700BF74000020D88E2000D9
:1047BC00280000205D452000C1582000A0000020EA
:1047CC00E08E20002DE9F04F42F20C06C4F20306F5
:1047DC0033684FF0000A23F00103336042F2080300
:1047EC00C4F20D031A68054642F004021A6042F244
:1047FC000C03C4F20D031A684FF0FF3042F00402B0
:10480C001A6042F20003C4F20303C3F800A042F2A0
:10481C000403C4F2030301221A6042F2280342F299
:10482C002402C4F20303C4F20302C3F800A0106014
:10483C00316842F2480B41F001013160C4F2030BC4
:10484C006FF00041DFF8AC8296B01960D146544647
:10485C00DE4642F224004FF0FF31C4F20300016047
:10486C003368002743F001033360F34628460137D1
:10487C0002F042FBB7F57A7FF8D1DBF800304FF647
:10488C00FF77C7F6FF77FF1A3368DE4623F0010384
:10489C0042F2280242F2240B3360C4F2030B6FF095
:1048AC000043C4F203024FF0FF3C1360CBF800C08E
:1048BC003368D34643F0010333600023BA46CDF886
:1048CC0004E027461C462846013401F03BFFB4F5B2
:1048DC007A7FF8D1DDF804E04FF6FF73DEF80020A4
:1048EC00316842F2280021F001013C463160574604
:1048FC006FF00041C4F20300C7F6FF739B1ADA464F
:10490C00016008F1140103C910EB070B41F1000C15
:10491C0058466146CDF804B0CDF808C0C8F814006C
:10492C00C8F8181008F11C0103C910EB030B41F176
:10493C00000C0AF1010A42F20C0258466146B945D4
:10494C0038BFB9469C4238BF1C46BAF5806FC4F2DA
:10495C000302CDF80CB0CDF810C0C8F81C00C8F894
:10496C0020107FF476AF0199A4461446029A4FEAC0
:10497C00912840F22801C2F2000148EA8258930AB9
:10498C00039A8B61049B970A47EA83579B0A0B6235
:10499C00C1F81480CF615848CDF800C000F098FFE2
:1049AC00564800F095FF564806AD00F091FF55486B
:1049BC0000F08EFF2A46002349464E4800F0E4FFE3
:1049CC0016A900260B1803F8406C284600F080FF4F
:1049DC004D4800F07DFF4D4800F07AFF41462A46D5
:1049EC003346444800F0D0FF16AA131803F8406C65
:1049FC00284600F06DFF44F6D35A434800F068FF98
:104A0C00C1F2620A424800F063FFAAFB08312A4651
:104A1C0089093346374800F0B7FF0DF1580B0BEB03
:104A2C00000303F8406C284600F052FF394800F0B0
:104A3C004FFF314800F04CFF304800F049FF36483A
:104A4C0000F046FF2F4800F043FFDDF800C02A4677
:104A5C0061463346274800F097FF0DF1580C0CEBDC
:104A6C00000303F8406C284600F032FF264800F0A3
:104A7C002FFF264800F02CFF2A46394633461D48A6
:104A8C0000F082FF16A90B1803F8406C284600F0C2
:104A9C001FFF1D4800F01CFF1D4800F019FFAAFB6A
:104AAC00072133462A468909124800F06DFF0DF1A3
:104ABC00580B0BEB000303F8406C284600F008FF82
:104ACC00144800F005FF236823F00103236042F231
:104ADC000803C4F20D031A6822F004021A6042F2B1
:104AEC000C03C4F20D031A6822F004021A6016B00B
:104AFC00BDE8F08F28000020E88E2000088F2000F1
:104B0C00188F2000308F20002C8F2000488F200021
:104B1C00608F2000808F2000848F20002DE9F04FC3
:104B2C0042F20C06C4F2030633684FF0000A23F07D
:104B3C000103336042F20803C4F20D031A68054600
:104B4C0042F004021A6042F20C03C4F20D031A681C
:104B5C004FF0FF3042F004021A6042F20003C4F23C
:104B6C000303C3F800A042F20403C4F203030122BE
:104B7C001A6042F2280342F22402C4F20303C4F284
:104B8C000302C3F800A01060316842F2480B41F0F8
:104B9C0001013160C4F2030B6FF00041DFF8AC820D
:104BAC0096B01960D1465446DE4642F224004FF0CE
:104BBC00FF31C4F2030001603368002743F00103A6
:104BCC003360F3462846013701F07EFEB7F57A7F55
:104BDC00F8D1DBF800304FF6FF77C7F6FF77FF1AF6
:104BEC003368DE4623F0010342F2280242F2240B22
:104BFC003360C4F2030B6FF00043C4F203024FF0B6
:104C0C00FF3C1360CBF800C03368D34643F001037C
:104C1C0033600023BA46CDF804E027461C462846EC
:104C2C00013401F0E3FBB4F57A7FF8D1DDF804E050
:104C3C004FF6FF73DEF80020316842F2280021F0B5
:104C4C0001013C46316057466FF00041C4F203004D
:104C5C00C7F6FF739B1ADA46016008F1140103C909
:104C6C0010EB070B41F1000C58466146CDF804B02F
:104C7C00CDF808C0C8F81400C8F8181008F11C01C9
:104C8C0003C910EB030B41F1000C0AF1010A42F2CB
:104C9C000C0258466146B94538BFB9469C4238BFEC
:104CAC001C46BAF5806FC4F20302CDF80CB0CDF8F7
:104CBC0010C0C8F81C00C8F820107FF476AF01991A
:104CCC00A4461446029A4FEA912840F22801C2F2F7
:104CDC00000148EA8258930A039A8B61049B970A55
:104CEC0047EA83579B0A0B62C1F81480CF6158487E
:104CFC00CDF800C000F0ECFD564800F0E9FD564838
:104D0C0006AD00F0E5FD554800F0E2FD2A46002313
:104D1C0049464E4800F038FE16A900260B1803F839
:104D2C00406C284600F0D4FD4D4800F0D1FD4D48B4
:104D3C0000F0CEFD41462A463346444800F024FE9E
:104D4C0016AA131803F8406C284600F0C1FD44F66F
:104D5C00D35A434800F0BCFDC1F2620A424800F04D
:104D6C00B7FDAAFB08312A4689093346374800F0BB
:104D7C000BFE0DF1580B0BEB000303F8406C2846AF
:104D8C0000F0A6FD394800F0A3FD314800F0A0FD6D
:104D9C00304800F09DFD364800F09AFD2F4800F099
:104DAC0097FDDDF800C02A4661463346274800F0DF
:104DBC00EBFD0DF1580C0CEB000303F8406C28468E
:104DCC0000F086FD264800F083FD264800F080FDAB
:104DDC002A46394633461D4800F0D6FD16A90B1855
:104DEC0003F8406C284600F073FD1D4800F070FD80
:104DFC001D4800F06DFDAAFB072133462A468909A0
:104E0C00124800F0C1FD0DF1580B0BEB000303F839
:104E1C00406C284600F05CFD144800F059FD2368F6
:104E2C0023F00103236042F20803C4F20D031A6855
:104E3C0022F004021A6042F20C03C4F20D031A6849
:104E4C0022F004021A6016B0BDE8F08F2800002092
:104E5C00E88E20009C8F2000188F2000308F2000BF
:104E6C002C8F2000488F2000608F2000808F200026
:104E7C00848F20002DE9F04FDFF80C77B1B0FFF7ED
:104E8C0089FBDFF8080700F023FD09AA4FF48061C5
:104E9C000023384600F078FD31A94FF0000B0B18B9
:104EAC0003F8A0BC09A800F013FDDFF8E40600F03D
:104EBC000FFD4FF47A7109AA5B46384600F064FD89
:104ECC0031AA131803F8A0BC09A800F001FDDFF803
:104EDC00C40600F0FDFC4FF47A712DA801F074FAB1
:104EEC0027AD2DA842F20C06FFF718FEC4F20306FC
:104EFC0028464FF47A7101F061FA336842F22401CA
:104F0C0023F00103336042F20803C4F20D031A6864
:104F1C004FF0FF3042F004021A6042F20C03C4F26C
:104F2C000D031A68C4F2030142F004021A6042F243
:104F3C000003C4F20303C3F800B042F20403C4F24A
:104F4C00030301221A6042F22803C4F20303C3F8DC
:104F5C0000B00860326842F2480042F00102326050
:104F6C00C4F203006FF00042CDF8ACB0CDF8B0B095
:104F7C001A600890D846DA46DE4642F224014FF019
:104F8C00FF32C4F203010A603368002443F00103CA
:104F9C003360F3462846013401F080FDB4F57A7F86
:104FAC00F8D1DE46DDF820B04FF6FF79DBF80030A3
:104FBC00C7F6FF79C3EB0909336842F2280C42F2B9
:104FCC00240123F001036FF00040C4F2030C4FF0F6
:104FDC00FF32C4F203013360CCF800000A6033687E
:104FEC00002443F001033360F3462846013401F0FA
:104FFC000FFEB4F57A7FF8D1089BDE461A6842F2B0
:10500C00280B316858464FF6FF73C4F2030021F0A9
:10501C0001016FF0004BC7F6FF739B1A31600090D3
:10502C00C0F800B007F1140103C910EB090B41F1F2
:10503C00000C58466146CDF814B0CDF818C0786114
:10504C00B96107F11C0103C910EB030B41F1000C12
:10505C000EF1010E42F20C0258466146CA4538BFA9
:10506C00CA46984538BF9846BEF5806FC4F2030215
:10507C00CDF80CB0CDF810C0F86139627FF47DAF7B
:10508C000599C4469046069A4FEA912B40F22801A6
:10509C00C2F200014BEA825B930A039A8B61049B78
:1050AC00960A46EA83569B0AC1F814B0CE610B628D
:1050BC00DFF8E404CDF808C0D146DDF800A000F01C
:1050CC0007FCDFF8D80400F003FCDFF8D40400F090
:1050DC00FFFBDFF8D00400F0FBFB09AA49460023D4
:1050EC00DFF8A40400F050FC31A94FF000090B18B4
:1050FC0003F8A09C09A800F0EBFBDFF8AC0400F06F
:10510C00E7FBDFF8A80400F0E3FB594609AA4B467D
:10511C00DFF8740400F038FC31AA131803F8A09CD3
:10512C0009A800F0D5FBDFF8800400F0D1FBDFF814
:10513C00800400F0CDFBBBFBF4F109AA4B46DFF871
:10514C00480400F021FC0DF1C40B0BEB000303F839
:10515C00A09C09A800F0BCFBDFF8580400F0B8FBD9
:10516C00DFF8340400F0B4FBDFF8300400F0B0FBDF
:10517C00DFF8440400F0ACFBDFF8280400F0A8FBD7
:10518C00DDF808C009AA61464B46FF4800F0FCFB5D
:10519C000DF1C40C0CEB000303F8A09C09A800F063
:1051AC0097FBDFF8040400F093FBDFF8000400F039
:1051BC008FFB09AA31464B46F34800F0E5FB31A9B9
:1051CC000B1803F8A09C09A800F082FBF64800F02D
:1051DC007FFBF74800F07CFBB6FBF4F109AA4B46C9
:1051EC00E94800F0D1FB31AA131803F8A09C09A8D8
:1051FC0000F06EFBEF4800F06BFBD8F8003042F289
:10520C00080B23F00103C8F80030C4F20D0BDBF8D7
:10521C00003020AE23F00403CBF8003042F20C0334
:10522C00C4F20D031A68304622F004021A602146BB
:10523C00029301F0C3F8D8F80020029B22F001027F
:10524C00C8F80020DBF8002042F2480C42F00402BF
:10525C00CBF800201A68604642F004021A6042F251
:10526C000003C4F20303C3F8009042F20403C4F237
:10527C00030301221A6042F22402C4F203024FF02B
:10528C00FF33CAF800901360D8F800106FF0004B91
:10529C0041F00101C4F20300C8F80010CDF8909061
:1052AC00CDF89490CDF89890CAF800B0CDF8209035
:1052BC000790C84642F224014FF0FF32C4F20301BA
:1052CC0042F20C0B0A60C4F2030BDBF80030002432
:1052DC0043F00103CBF800303046013401F0BEFE40
:1052EC00B4F57A7FF8D1DDF81CC04FF6FF7ADCF804
:1052FC00003042F20C00C4F20300C7F6FF7AC3EB95
:10530C000A0A036842F2280123F00103036042F207
:10531C002403C4F203036FF00042C4F203014FF004
:10532C00FF3B0A60C3F800B00368002443F001039C
:10533C0003603046013401F043F9B4F57A7FF8D1BB
:10534C00DDF81CC04FF6FF73DCF80020C7F6FF73C6
:10535C009B1A42F20C02C4F2030211686FF0004B6C
:10536C0021F00101116042F22801C4F20301C1F8DD
:10537C0000B007F1140103C910EB0A0B41F1000C4A
:10538C0058466146CDF814B0CDF818C07861B961B3
:10539C0007F11C0103C910EB030B41F1000C614632
:1053AC005846F8613962089909F10109994238BFE8
:1053BC001946D04538BFD046B9F5806FCDF80CB042
:1053CC00CDF810C008917FF475AF41469046059A10
:1053DC00069B4FEA922A40F22802C2F200024AEAE5
:1053EC00835A9B0A9361039B04984FEA932940F2DA
:1053FC00280B830A49EA8059C2F2000BC2F814A0A8
:10540C00CBF82030CBF81C906348029100F060FA86
:10541C006A4800F05DFA624800F05AFA614800F000
:10542C0057FA029909AA0023574800F0ADFA0DF17A
:10543C00C40C0CEB0003002703F8A07C09A800F0B7
:10544C0047FA594800F044FA584800F041FA09AAC2
:10545C0051463B464C4800F097FA31A90B1803F81B
:10546C00A07C09A800F034FA4F4800F031FA5048FB
:10547C0000F02EFABAFBF4F109AA3B46424800F0C0
:10548C0083FA0DF1C40B0BEB000303F8A07C09A805
:10549C0000F01EFA474800F01BFA3F4800F018FADB
:1054AC00464800F015FA444800F012FA3D4800F066
:1054BC000FFA09AA08993B46334800F065FA31A95E
:1054CC000B1803F8A07C09A800F002FA364800F08B
:1054DC00FFF9364800F0FCF9494609AA3B462A4830
:1054EC0000F052FA0DF1C40B0BEB000303F8A07C97
:1054FC0009A800F0EDF92C4800F0EAF92C4800F06E
:10550C00E7F909AAB9FBF4F13B461F4800F03CFA55
:10551C0031A90B1803F8A07C09A800F0D9F925488B
:10552C0000F0D6F9D8F80030214623F00103C8F872
:10553C00003042F20803C4F20D031A680DF164083E
:10554C0022F004021A6042F20C03C4F20D031A6832
:10555C00404622F004021A6000F030FF40461D97CE
:10556C001E971F97FFF72EF9404600F039FF304683
:10557C0000F036FF284600F033FF2DA800F02AFF7C
:10558C00384631B0BDE8F08F28000020A88F2000ED
:10559C00D88F2000E88F2000E88E2000F88F2000A4
:1055AC00188F2000308F20002C8F2000488F200077
:1055BC00608F2000808F2000848F200008902000B6
:1055CC0030B500F03DFAA4494B68002B00F02D815A
:1055DC005A6845F60300824209D8B2F5B04F06D09E
:1055EC00DB68002B00F021815A688242F5D9A2F5C4
:1055FC00B0425A60CA689848A2F5B042CA605A686C
:10560C0092B90468012C00F0C7809968002900F059
:10561C00F480DD68002D00F0FC80CD60DA689160CC
:10562C000268013A02605A681968DFF830C2002338
:10563C008C18CCF80030CCF80430CCF80830CCF80E
:10564C000C3048D04FF4B0408C506060A360E360E5
:10565C00DCF80C301B18CCF80C30DCF8043051F8AA
:10566C0002E06068002B7FD01D687044A8420CBF1C
:10567C001A461A4604D0D26812B111688842FAD17F
:10568C0059686D18AE4507D0DB68002B6BD01868D5
:10569C00596841188E45F7D119461346B3B1606865
:1056AC005A6882186260DCF8000001286CD09A6895
:1056BC00002A76D0DD68002D00F08180D560DB6893
:1056CC009A60DCF80030013BCCF8003019B14A6824
:1056DC006368D3184B60624C624BC3F800C000F097
:1056EC0087FA00F05DFB47F20802C4F20D02136862
:1056FC005D4823F0FF0343F0B0031360D0F800C003
:10570C0047F20002C4F20D02136813F0800FFBD0B5
:10571C0047F21001C4F20D010A6847F20C01C4F201
:10572C000D010B6802F0FF0144F66D62C4F2C61263
:10573C00C3F3850343EA811102FB0CF303F54053D9
:10574C00393341F30D01B3F1FF3F28BF013381EA37
:10575C0003030360454800F0BBF8454800F0B8F877
:10576C000A23236030BD1346DCF80010002934D125
:10577C00A160E160DCF80020CCF804400132CCF8E8
:10578C000840CCF8002089E70023CCF80430CCF892
:10579C000830CCF8003099E74260826002605A68A9
:1057AC0042E7002892D0DCF80430DB68CCF80430F7
:1057BC009A60DCF80030013BCCF8003086E700281A
:1057CC0084D0DCF808309B68CCF80830DD60DCF85D
:1057DC000030013BCCF8003078E7DCF808200021E1
:1057EC00D460DCF80820E160A260DCF80020CCF882
:1057FC0008400132CCF8002050E7002C3FF414AFE5
:10580C004168C96841608A600268013A02605A685E
:10581C000AE7002C3FF408AF816889688160CA6090
:10582C000268013A02605A68FEE60D4C01232372AD
:10583C00104800F04DF80E4800F04AF8DFF81CC094
:10584C000A2323600023CCF80030CCF80430CCF8C9
:10585C000830CCF80C303FE7EC010020640000204D
:10586C004C000020740000207800002034902000B0
:10587C002C8F20001890200040F2CC030022C2F2A2
:10588C0000031A6040F2C803C2F200031A6040F22F
:10589C005803C2F200030A204FF0FF315960186020
:1058AC001A7240F24C03C2F20003596018601A726B
:1058BC00704700BF00B5004601F0CCFE00BD00BF34
:1058CC0000B501F0C7FE00BD00B502F03FFF00BD02
:1058DC002DE9F045002507467C5D1C4EAA46DFF8F5
:1058EC00708084B1092C29D00A2C18D0336820463A
:1058FC000133336002F094FF33684F2B05DC013524
:10590C007C5D002CEED1BDE8F0850D2002F088FF07
:10591C000A2002F085FF0135C6F800A0F0E70D2043
:10592C0002F07EFF204602F07BFFD8F80030C6F86C
:10593C0000A00133C8F800300135E1E7204602F041
:10594C006FFF3368013508333360D9E7C800002096
:10595C00CC00002010B549F27C0040F24C0401232D
:10596C00C2F20004C0F220002372FFF7B1FF48F628
:10597C002C70C0F22000FFF7ABFF0A23236010BD90
:10598C0000B5FFF7A1FF00BD70B400293BD0B1F505
:10599C00807F1BD9D0F800C0BCF1080F14BF0024C5
:1059AC000124BCF1100F08BF44F0010484B14FF086
:1059BC00300C02F803C0D0F800C00133BCF1100F5A
:1059CC0006D14FF0780C02F803C00133D0F800C0B8
:1059DC000C465D1CB4FBFCF41E462B46002CF8D187
:1059EC000B4C9219B1FBFCF30CFB131C14F80C3090
:1059FC0002F80139D0F800C0B1FBFCF10029F1D15B
:105A0C00284670BC70473021D154581CF9E700BFB0
:105A1C0098902000302310B41370084C78235370E6
:105A2C00072301F00F0C14F80CC0D0180909013B26
:105A3C0080F802C0F5D20A2010BC70479890200064
:105A4C0000B500F001F800BD2DE9F0415D4D47F6C1
:105A5C00F834C2F20004641B102C90B0A8462DD868
:105A6C00594E012359483372FFF732FF5848FFF75C
:105A7C002FFF5848FFF72CFF5748FFF729FF5748CF
:105A8C00FFF726FF5648FFF723FF5648FFF720FF86
:105A9C007D216A4600233046FFF776FF10AB1818BD
:105AAC00002300F8403C6846FFF712FF4E48FFF712
:105ABC000FFF0A236F463360002C48D00023EB60A5
:105ACC006C60AB60C5F80080484DDFF8F8C0EB683F
:105ADC00E318EB606B68002B3DD0186808EB84046E
:105AEC0084420CBF1A461A4604D0D26812B111680F
:105AFC008C42FAD1596800EB8100804508D0DB68F4
:105B0C00002B27D05868196801EB80018845F6D125
:105B1C0019461346ABB1DCF804005A688218CCF86D
:105B2C0004202C68314A012C24D09868002826D0F7
:105B3C00DD68002D3BD0C560DB6898601368013BC5
:105B4C00136021B14A68DCF80430D3184B6010B0F4
:105B5C00BDE8F08113462A682448D2B90121CCF85B
:105B6C000820CCF80C200160C0F804C0C0F808C0B4
:105B7C001146CFE70023536093601360E1E7002CDC
:105B8C00DFD05368DB68536098601368013B136087
:105B9C00D7E781680132C1F80CC08168CCF80810D5
:105BAC000021CCF80C10C0F808C00260B2E7002C41
:105BBC00C7D093689B689360DD601368013B1360EA
:105BCC00BFE700BFFC0100204C000020EC8D200042
:105BDC0000912000048E2000AC902000108E20003C
:105BEC001C912000708E20002C8F2000EC010020D6
:105BFC0000B500F0A3F900F0B5F900F003F800F0DF
:105C0C0085F800BD4EF210034EF21802CEF20003DE
:105C1C000021CEF20002196011604EF21402CEF295
:105C2C0000024FF4FA41116006221A6048F2E57145
:105C3C0040F2D002C2F20002C0F22001D1631A6815
:105C4C0042F001021A60704740F27C030022C2F25B
:105C5C0000031A7040F27D03C2F200031A7040F286
:105C6C008003C2F200030221196040F2E013C2F279
:105C7C0000031A6040F2DC13C2F2000349F2380C44
:105C8C001A60C4F2080C032349F2400049F24C019B
:105C9C00CCF8003030B4C4F208000424C4F208017B
:105CAC0049F244030460C4F208030A601D6845F01D
:105CBC0040051D601D6845F008051D601D6845F018
:105CCC0008051D602023CCF8004002600B6049F2EF
:105CDC005003C4F208031A6842F080021A601A6872
:105CEC0042F010021A6049F21C03C4F208030122AC
:105CFC001A6049F22403C4F208031A6049F22C0317
:105D0C00C4F208031C6030BC704700BF00B500F043
:105D1C00BBF84BF22043C4F20D031A6822F00402C4
:105D2C001A604BF20043C4F20D031A6842F00402ED
:105D3C001A604BF21003C4F20D03FF221A6049F2F1
:105D4C003C02C4F20802136843F0010313601368A9
:105D5C0043F002031360136813F0800FFBD049F279
:105D6C000403C4F208031A6822F001021A60FFF758
:105D7C006BFF084B01221A60074A084BC3F8F0204E
:105D8C004EF20413CEF200034FF480521A6062B646
:105D9C0000BD00BF80000020CD892000D000002075
:105DAC0000B500F007F900F001F800BD10B5324B5A
:105DBC00186841680B46002959D04A68272A07D829
:105DCC00182A05D0DB68002B51D05A68272AF7D93E
:105DDC00183A5A60C268183AC2605A6892B9D0F838
:105DEC0000C0BCF1010F21D09C68002C26D0D968D2
:105DFC0000292FD0E160DA680CF1FF3CC0F800C03C
:105E0C0094605A68196818208B1888500433012143
:105E1C0019721A4900221A601961642218495A60D1
:105E2C00086840B1DA60174A136010BD0260426026
:105E3C0082605A68E6E70B605A68F3E7BCF1000F22
:105E4C00E0D0C9680CF1FF3CC0F800C041608A602A
:105E5C005A68D7E7BCF1000FD4D081680CF1FF3C35
:105E6C008968C0F800C08160CA605A68CAE7FFF749
:105E7C0087FD0023CBE700BF740000206D7B200062
:105E8C00D0010020A40000202B480378002B52D115
:105E9C004CF22042C4F20D0213684FF0010C23F0B7
:105EAC00400313604CF20043C4F20D03196821F057
:105EBC004001196044F2F801C4F20D01C1F800C0B0
:105ECC00116821F0800111601A6822F080021A60BA
:105EDC0044F2FC03C4F20D0342F20002C3F800C00A
:105EEC00C4F20D0211684FF6F873CFF6DC6301EAC9
:105EFC00030343F4081342F204011360C4F20D01CE
:105F0C000A6840F20003C0F2011302EA0303002BFB
:105F1C00F6D142F20003C4F20D031A6822F4E062D7
:105F2C001A6042F20402C4F20D02136813F0806F7F
:105F3C00FBD00123037070478400002000B5FFF7ED
:105F4C00A3FF42F29803C4F20D031A6842F0010257
:105F5C001A604EF60853CEF200034FF401121A6089
:105F6C0000BD00BF72B64EF61453CEF200031A6891
:105F7C000D4942F001021A604EF280134FF0FF32CD
:105F8C00CEF200031A604EF28413CEF200031A60B4
:105F9C00064A0023CA500433B3F5807FFAD1044A71
:105FAC00014BDA60704700BFD00000200987200049
:105FBC000D87200010B5314B186841680B4600293D
:105FCC0057D04A68272A07D8182A05D0DB68002B37
:105FDC004FD05A68272AF7D9183A5A60C268183A2B
:105FEC00C2605A6892B9D0F800C0BCF1010F1FD042
:105FFC009C68002C24D0D96800292DD0E160DA6887
:10600C000CF1FF3CC0F800C094605A681968182065
:10601C008B18885004331A490122196119491A60E6
:10602C005A601A72486840B1DA60174A136010BDA2
:10603C000260426082605A68E8E74B605A68F3E796
:10604C00BCF1000FE2D0C9680CF1FF3CC0F800C0F5
:10605C0041608A605A68D9E7BCF1000FD6D08168DC
:10606C000CF1FF3C8968C0F800C08160CA605A68B6
:10607C00CCE7FFF785FC0023CDE700BF74000020C0
:10608C00F1602000D00100208C000020014B036047
:10609C00704700BFF8912000014B0360704700BFB0
:1060AC00F891200040F29003C2F2000300221A6023
:1060BC005A609A60704700BF00B5406800F096F9CE
:1060CC0000BD00BF024B00B5036002F0F7FD00BD40
:1060DC00F8912000024B00B5036002F0EFFD00BD0B
:1060EC00F8912000F0B572B63F4B1A6801321A6075
:1060FC003E4A13682BB15168486801380028486043
:10610C0007DD002362B61BB1586803689B6898478B
:10611C00F0BD012B3CD0CB68002053609860136815
:10612C00013B1360CB6823B1D3F804C048686044CA
:10613C0058600B689868B0F1FF3F03D00138986045
:10614C000028DFD0D3F80CC02848C1F804C016686A
:10615C00002E35D047687C68A445B8BF3D4609DBA6
:10616C00F868F8B1C4EB0C0CC1F804C044680546DF
:10617C00A44514DAA868002829D0CCEB040C01360D
:10618C00C5F804C0C160A960CD6088601660B9E72D
:10619C000023536093601368013B1360C2E7C0682F
:1061AC000028DFD19068C4EB0C0CC1608860C1F88A
:1061BC0004C00020C8609160116801311160A1E732
:1061CC0001228E60CE600260416081609AE7CCEB68
:1061DC00040CC5F804C08860CF60B96051601168C8
:1061EC00013111608EE700BF880000209000002074
:1061FC0030B472B6DFF880C0DCF80410E9B10B687B
:10620C00984218BF0B462BD0DB68B3B11A6890428A
:10621C00FAD1DCF80000184C012811D09D68002D33
:10622C0020D0DA6892B1EA60DA68013895602060B3
:10623C001AB151685B68CB18536062B630BC7047BA
:10624C0000226260A2602260DA68F1E70028F4D0D4
:10625C00A168013889682060A160CA60DA68E7E744
:10626C000B46D6E708B9DA68E2E7CA68013862601B
:10627C0020609560DA68DBE79000002083603B4B80
:10628C00D1F800C01B68C0F800C05B684FF47A7C82
:10629C00BCFBF3F344F2402CC0F20F0CBCFBF3FC40
:1062AC000B68002103EB5C03B3FBFCF3F0B542601D
:1062BC00C360006143618161C16172B62BB962B682
:1062CC00136810469B689847F0BD294C00F1100CE0
:1062DC002668002E32D0676879688B42B8BF3D467D
:1062EC001ADBFA684AB15B1ACCF8043051681546CF
:1062FC008B421FDA436999420EDC5B1A4361A36837
:10630C00C3F80CC083610023C3612368C4F808C0C0
:10631C000133236062B6D7E7AA68CAB1CB1A01363B
:10632C006B60C2F80CC0C5F808C0C56182612660FC
:10633C0062B6C9E7D268002AD5D1DBE701238661B2
:10634C00C6612360C4F804C0C4F808C062B6BBE7D9
:10635C00CB1A6B60236882610133C761C7F808C030
:10636C002360C4F804C062B6AEE700BF8C00002006
:10637C009000002070B58EB008AC06460021204677
:10638C0000F022F80B4B31460CAA0C936846012303
:10639C000D94FFF773FF204600F096FA6846FFF75E
:1063AC0027FF054B20466D460C9300F013F80EB0FA
:1063BC0070BD00BFE4912000F89120000023036021
:1063CC0043608360C1607047002303604360836057
:1063DC00C160704700B572B601F02AFC00BD00BF69
:1063EC0000B572B601F024FC00BD00BF42F20C03F4
:1063FC00C4F203031A684FF0000C22F001021A6079
:10640C0042F20802C4F20D021168F0B541F0040129
:10641C00116042F20C02C4F20D021168054641F003
:10642C000401116042F20002C4F2030242F20401C0
:10643C00C2F800C0C4F20301012242F228000A6033
:10644C00C4F2030042F22401C0F800C0C4F20301FC
:10645C004FF0FF3CC1F800C0D3F800E090B04EEA1A
:10646C00020EC3F800E06FF0004EC0F800E0C1F877
:10647C0000C019681143196072B64A480146D1E848
:10648C004F3FC1E8442F002CF9D1DCB2002CF6D1DF
:10649C00EB68EA6804700132002BEA604CDB42F2D4
:1064AC004803C4F2030340481F68FFF711FA3F4842
:1064BC00FFF70EFA3E48FFF70BFA29466A463D48AD
:1064CC00FFF7A8FA10AB181800F8404C6846FFF715
:1064DC00FFF93948FFF7FCF94FF6FF71C7F6FF716A
:1064EC00C91B6A4623463348FFF74EFA10AB1818FF
:1064FC0000F8404C6846FFF7EBF930486E46FFF762
:10650C00E7F962B642F20C03C4F203031A6822F0F4
:10651C0001021A6042F20803C4F20D031A6822F059
:10652C0004021A6042F20C03C4F20D031A6822F042
:10653C0004021A6010B0F0BD42F24803C4F2030327
:10654C0019481F68FFF7C4F91848FFF7C1F9184834
:10655C00FFF7BEF929466A461648FFF75BFA10ABFF
:10656C00181800F8404C6846FFF7B2F91248FFF7CC
:10657C00AFF94FF6FF71C7F6FF71C91B6A46234688
:10658C000C48FFF701FA10AB181800F8404C68469D
:10659C00FFF79EF90948FFF79BF928466E4601F074
:1065AC00FBFEAFE79C000020049220000892200024
:1065BC001092200058000020149220001892200005
:1065CC00F0B5044692B072B6574B0069DB681B6895
:1065DC00984205D02046FFF709FF62B612B0F0BD15
:1065EC00636912A941F8043D01F0F6FB42F20C0379
:1065FC00C4F203031A68002022F001021A6042F26E
:10660C000802C4F20D02116841F00401116042F25B
:10661C000C02C4F20D02116841F00401116042F247
:10662C000002C4F20302106042F20402C4F203023C
:10663C000121116042F22801C4F2030142F224024A
:10664C000860C4F203024FF0FF301060D3F800C0B2
:10665C004CF0010CC3F800C06FF0004CC1F800C046
:10666C0010601A6842F001021A602368002B4DD1A9
:10667C000023236142F24803C4F203032B481F6832
:10668C00FFF726F92A48FFF723F92A48FFF720F9E4
:10669C0021466A462848FFF7BDF912AB18180026A8
:1066AC0000F8486C6846FFF713F92448FFF710F917
:1066BC004FF6FF71C7F6FF716A46C91B33461E4879
:1066CC00FFF762F912AB181800F8486C6846FFF730
:1066DC00FFF81B48FFF7FCF842F20C03C4F203036B
:1066EC001A686D4622F001021A6042F20803C4F2E5
:1066FC000D031A6822F004021A6042F20C03C4F271
:10670C000D031A6822F004021A6063E763681868C4
:10671C000028ADD0036A12A96361A369206141F816
:10672C00083D01F059FBA5E7A800002004922000C9
:10673C002C9220001092200058000020149220006F
:10674C001892200042F20C03C4F203031A68F0B54D
:10675C0022F001021A6042F20802C4F20D02116822
:10676C00054641F00401116042F20C02C4F20D0224
:10677C001168002041F00401116042F20002C4F2E1
:10678C000302106042F204020121C4F20302116000
:10679C0042F22801C4F2030142F224020860C4F25E
:1067AC0003024FF0FF301060D3F800C092B04CF0F1
:1067BC00010CC3F800C06FF0004CC1F800C01060B1
:1067CC001A6842F001021A6072B6384B2869DB680D
:1067DC001B68984250D042F24803C4F20303344879
:1067EC001F68FFF775F83348FFF772F83248FFF768
:1067FC006FF829466A463148FFF70CF912AB1818A6
:10680C00002600F8486C6846FFF762F82C48FFF742
:10681C005FF84FF6FF71C7F6FF71C91B6A46334626
:10682C002648FFF7B1F812AB181800F8486C684608
:10683C00FFF74EF82348FFF74BF82846FFF7D6FD35
:10684C006C4662B642F20C03C4F203031A6822F0DF
:10685C0001021A6042F20803C4F20D031A6822F016
:10686C0004021A6042F20C03C4F20D031A6822F0FF
:10687C0004021A6012B0F0BD6B6912A941F8043D14
:10688C0001F0AAFA2B6813B900232B61A3E76B68FC
:10689C0018680028F8D0036A12A96B61AB692861EB
:1068AC0041F8083D01F098FA95E700BFA8000020D8
:1068BC0004922000349220001092200058000020F6
:1068CC00149220001892200042F20C03C4F203032D
:1068DC001A684FF0000C22F001021A6042F2080212
:1068EC00C4F20D021168F0B541F00401116042F2DE
:1068FC000C02C4F20D021168054641F0040111604E
:10690C0042F20002C4F2030242F20401C2F800C0D7
:10691C00C4F20301012242F228000A60C4F203000F
:10692C0042F22401C0F800C0C4F203014FF0FF3C56
:10693C00C1F800C0D3F800E090B04EEA020EC3F8E4
:10694C0000E06FF0004EC0F800E0C1F800C019681C
:10695C001143196072B64A480146D1E84F3FC1E86D
:10696C00442F002CF9D1DCB2002CF6D1EB68EA688C
:10697C000470013A002BEA604CDD42F24803C4F289
:10698C00030340481F68FEF7A3FF3F48FEF7A0FF34
:10699C003E48FEF79DFF29466A463D48FFF73AF808
:1069AC0010AB181800F8404C6846FEF791FF3948B8
:1069BC00FEF78EFF4FF6FF71C7F6FF71C91B6A46D3
:1069CC0023463348FEF7E0FF10AB181800F8404C94
:1069DC006846FEF77DFF30486E46FEF779FF62B6DB
:1069EC0042F20C03C4F203031A6822F001021A608B
:1069FC0042F20803C4F20D031A6822F004021A6072
:106A0C0042F20C03C4F20D031A6822F004021A605D
:106A1C0010B0F0BD42F24803C4F2030319481F68DA
:106A2C00FEF756FF1848FEF753FF1848FEF750FFC5
:106A3C0029466A461648FEF7EDFF10AB181800F809
:106A4C00404C6846FEF744FF1248FEF741FF4FF6F4
:106A5C00FF71C7F6FF71C91B6A4623460C48FEF747
:106A6C0093FF10AB181800F8404C6846FEF730FF47
:106A7C000948FEF72DFF28466E4601F0EFFAAFE706
:106A8C009D000020049220003C92200010922000D7
:106A9C0058000020149220001892200042F20C039F
:106AAC00C4F203031A68F0B522F001021A6042F234
:106ABC000802C4F20D021168054641F00401116090
:106ACC0042F20C02C4F20D021168002041F00401E4
:106ADC00116042F20002C4F20302106042F204029E
:106AEC000121C4F20302116042F22801C4F2030135
:106AFC0042F224020860C4F203024FF0FF3010602F
:106B0C00D3F800C091B04CF0010CC3F800C06FF08A
:106B1C00004CC1F800C010601A6842F001021A6003
:106B2C0072B6286900285DD0324BDB681B68196A85
:106B3C00026A914205DA1B6A11A941F8043D01F081
:106B4C004BF942F24803C4F203032B481F68FEF7CB
:106B5C00BFFE2A48FEF7BCFE2948FEF7B9FE2946BF
:106B6C006A462848FEF756FF11AB1818002600F8A5
:106B7C00446C6846FEF7ACFE2348FEF7A9FE4FF6C0
:106B8C00FF71C7F6FF71C91B6A4633461D48FEF7F5
:106B9C00FBFE11AB181800F8446C6846FEF798FE23
:106BAC001A48FEF795FE2846FFF78EFE6C4662B635
:106BBC0042F20C03C4F203031A6822F001021A60B9
:106BCC0042F20803C4F20D031A6822F004021A60A0
:106BDC0042F20C03C4F20D031A6822F004021A608C
:106BEC0011B0F0BD034BDB681B682B611B6A6B613A
:106BFC00A7E700BFA80000200492200044922000C8
:106C0C0010922000580000201492200018922000AE
:106C1C002DE9F04F054695B072B642F20C04C4F261
:106C2C000304236842F2080823F001032360C4F232
:106C3C000D08D8F8003042F20C0A43F00403C8F8EF
:106C4C000030C4F20D0ADAF8003042F2000C43F0C6
:106C5C00040342F20402CAF80030C4F20302002713
:106C6C000123C4F2030C42F2280942F2240BCCF8A3
:106C7C000070C4F203091360C4F2030B02924FF0CC
:106C8C00FF32C9F80070CBF800202368066943F086
:106C9C00010323606FF00043C9F80030CBF80020EB
:106CAC00236843F001032360002E00F0E1808A4B3F
:106CBC008A48DB68CDF800C01B6804AE039342F22F
:106CCC004803C4F203031B680193FEF701FE8448DA
:106CDC00FEF7FEFD8348FEF7FBFD2946324682484F
:106CEC00FEF798FE15AA101800F8447C3046FEF703
:106CFC00EFFD7E48FEF7ECFD019B4FF6FF71C7F6EA
:106D0C00FF71C91A32463B467748FEF73DFE15AB7C
:106D1C00181800F8447C3046FEF7DAFD7448FEF78C
:106D2C00D7FD6B6915A941F8043D039801F054F89F
:106D3C002368DDF800C023F001032360D8F800308D
:106D4C00012243F00403C8F80030DAF8003043F0B5
:106D5C000403CAF80030029BCCF800701A604FF0A4
:106D6C00FF33C9F80070CBF800302368134323605D
:106D7C006FF000424FF0FF33C9F80020CBF8003021
:106D8C00236843F0010323602B68002B6AD12B612D
:106D9C006B6142F24803C4F2030350481F68FEF7CC
:106DAC0097FD5448FEF794FD4E48FEF791FD294699
:106DBC0032464D48FEF72EFE15AA1018002400F896
:106DCC00444C3046FEF784FD4848FEF781FD4FF6F3
:106DDC00FF71C7F6FF713246C91B23464248FEF7C6
:106DEC00D3FD15AB181800F8444C3046FEF770FD77
:106DFC003F48FEF76DFD42F20C03C4F203031A6820
:106E0C0022F001021A6042F20803C4F20D031A6860
:106E1C0022F004021A6042F20C03C4F20D031A6849
:106E2C0022F004021A602846FFF7E0FA62B642F23A
:106E3C000C03C4F203031A6822F001021A6042F236
:106E4C000803C4F20D031A6822F004021A6042F21D
:106E5C000C03C4F20D031A6822F004021A6015B078
:106E6C00BDE8F08F6B681B682B611B6A6B6190E748
:106E7C0042F24803C4F2030318481F68FEF728FDCA
:106E8C001748FEF725FD04AC1648FEF721FD2946F0
:106E9C0022461548FEF7BEFD15AA101800F8446CE2
:106EAC002046FEF715FD1148FEF712FD4FF6FF7157
:106EBC00C7F6FF71C91B224633460B48FEF764FD2B
:106ECC0015AB181800F8446C2046FEF701FD084875
:106EDC00FEF7FEFCA7E700BFA800002004922000EC
:106EEC005492200010922000580000201492200090
:106EFC00189220006092200042F20C03C4F20303AB
:106F0C001A68F0B522F001021A6042F20802C4F2CB
:106F1C000D021168054641F00401116042F20C02A9
:106F2C00C4F20D021168002041F00401116042F21C
:106F3C000002C4F20302106042F204020121C4F206
:106F4C000302116042F22801C4F2030142F224024E
:106F5C000860C4F203024FF0FF301060D3F800C099
:106F6C0091B04CF0010CC3F800C06FF0004CC1F8AC
:106F7C0000C010601A6842F001021A6072B62B69E8
:106F8C00002B50D042F24803C4F203032C481F6874
:106F9C00FEF79EFC2B48FEF79BFC2B48FEF798FC5B
:106FAC0029466A462948FEF735FD11AB181800260C
:106FBC0000F8446C6846FEF78BFC2548FEF788FC0D
:106FCC004FF6FF71C7F6FF71C91B6A4633461F485F
:106FDC00FEF7DAFC11AB181800F8446C6846FEF7A3
:106FEC0077FC1C48FEF774FC2846FFF76DFC6C46DA
:106FFC0062B642F20C03C4F203031A6822F00102D7
:10700C001A6042F20803C4F20D031A6822F004025B
:10701C001A6042F20C03C4F20D031A6822F0040247
:10702C001A6011B0F0BD0C4B11A9DB681868036A2B
:10703C0028616B61AB6941F8043D00F0CDFEA1E71E
:10704C00049220006C922000109220005800002026
:10705C001492200018922000A8000020F0B50446DD
:10706C0091B072B642F20C03C4F203031A68002505
:10707C0022F001021A6042F20802C4F20D021168F9
:10708C004FF0FF3041F00401116042F20C02C4F2E7
:10709C000D021168266941F00401116042F20002F0
:1070AC00C4F20302156042F20402C4F2030201218D
:1070BC00116042F2280142F22402C4F20302C4F22B
:1070CC0003010D601060D3F800C04CF0010CC3F844
:1070DC0000C06FF0004CC1F800C010601A6842F09C
:1070EC0001021A60002E59D042F24803C4F2030385
:1070FC0047481F68FEF7ECFB4648FEF7E9FB46489D
:10710C00FEF7E6FB21466A464448FEF783FC11ABCA
:10711C00181800F8445C6846FEF7DAFB4048FEF7A6
:10712C00D7FB4FF6FF71C7F6FF71C91B6A462B469A
:10713C003A48FEF729FC11AB181800F8445C684675
:10714C00FEF7C6FB3748FEF7C3FB2069A369026A4A
:10715C006E469A4204DA11A941F8043D00F03CFE57
:10716C002046FFF7B1FB62B642F20C03C4F20303F4
:10717C001A6822F001021A6042F20803C4F20D03ED
:10718C001A6822F004021A6042F20C03C4F20D03D6
:10719C001A6822F004021A6011B0F0BD224B1C4890
:1071AC00DB686D461B68236142F24803C4F203039B
:1071BC001F68FEF78DFB1748FEF78AFB1648FEF793
:1071CC0087FB21466A461548FEF724FC11AB1818BC
:1071DC0000F8446C6846FEF77BFB1148FEF778FB21
:1071EC004FF6FF71C7F6FF71C91B6A4633460B4851
:1071FC00FEF7CAFB11AB181800F8446C6846FEF792
:10720C0067FB0848FEF764FB23691B6A6361A7E709
:10721C00049220007492200010922000580000204C
:10722C001492200018922000A800002040F2A8021E
:10723C000023C2F20002D36013605360936040F2EB
:10724C00BC02C2F2000213605360704712F0FF0FD1
:10725C0018BF0C4B00B51FBF1B68DA685A68DA60A0
:10726C00884209D003694BB100230B6150F80C3FE5
:10727C00CB68C96801F0FEFC62B600BD0123036156
:10728C00F2E700BFA400002011F0FF0F30B5034659
:10729C0000D172B62F4AD1680868D168D2F80CC0F8
:1072AC0003F11C018C4517D01168012937D05C6A99
:1072BC00002C27D09D6A002D36D0E560D3F828C06D
:1072CC000139CCF80840116002211961D368012200
:1072DC001968FFF7BBFF30BD116879B1012930D0B7
:1072EC00D2F804C00024DCF80CE00139C2F804E048
:1072FC001160CEF80840C2F80CC0E5E78C46C2F825
:10730C000CC0E1E70029DFD0D2F804C00139DCF869
:10731C000CC01160C2F804C0CCF80840D4E70021BE
:10732C00516091601160CFE70029CDD0D2F808C030
:10733C000139DCF808C01160C2F808C0CCF80C5058
:10734C00C2E7D2F804C00021516091601160C2F80C
:10735C000CC0B9E7A80000202DE9F045044672B630
:10736C00614B6248196804F11C0701311960C3684C
:10737C00C368002B64D0D0F80080B8F1000F1FD088
:10738C00D0F804A004F12006DAF80410236A0AF1FC
:10739C000405994256DD5346D5F800C0216A8C4548
:1073AC0069DC8368DF6063620023A3620368876023
:1073BC00013303604E4B18687AB9A260BDE8F085C2
:1073CC000123C4F82480C4F82880036047608760D8
:1073DC00474B18680AB9F0E7013212F0030FFBD1E2
:1073EC00456804320F2A98BF10222B46002D76D008
:1073FC00696802F1100C8C4507D9914205D0DB6805
:10740C00002B6CD059686145F7D3891A5960C16853
:10741C00891AC160596871B90668012E36D09F6807
:10742C00002F42D0DD68002D4BD0FD60D968013EA5
:10743C0006608F6059681B6858185A50021DBCE7CB
:10744C00C760C5E7DAF80C30002BA4D0D3F804C021
:10745C0031681D1D8C459FDCD96800299CD00B46DA
:10746C00D3F804C031681D1D8C45F5DDD5F800C07E
:10747C00216A8C4595DD996869B108F10108CF60E6
:10748C009F60A3626162C0F80080A1E70160416067
:10749C0081605968CFE7036861620133C4F828A0A2
:1074AC00CAF808700360476092E7002EC3D0D5F885
:1074BC000CC0013E0660C0F804C0CCF80810596836
:1074CC00B9E7002EB7D0D0F808C0013EDCF808C0F0
:1074DC000660C0F808C0CCF80C105968ABE7FEF792
:1074EC004FFA002269E700BFB8000020A800002076
:1074FC0074000020F0B572B63D4BDA68DA6810689B
:10750C00DA681A68002A3DD059686FF0004CD1F83F
:10751C0004E0E64536D0012AD3F80CE055D0D1F87A
:10752C000CC00024013AC3F804C01A60CCF808401F
:10753C001E682F4AD960002E2AD057680EF1040518
:10754C007A68DEF804103C1D914243DBFA68002A8D
:10755C0040D0D2F804C02968141D8C4523DDD4F822
:10756C0000C0DEF804108C4522DC9A68C2F80CE0EE
:10757C00CEF808200022CEF80C201A68C3F808E0D8
:10758C0001321A60DB6801221968FFF75FFEF0BD5B
:10759C000121CEF80860CEF80C601160C2F804E04E
:1075AC00C2F808E0EEE7D1680029D8D00A46D0E747
:1075BC00916889B10136C1F80CE0C2F808E0CEF848
:1075CC000C20CEF808101E60DCE700225A609A608E
:1075DC001A60ADE73A46C2E71A68CEF808100132D5
:1075EC00CEF80C70C7F808E01A60C3F804E0C9E7DD
:1075FC00A800002030B5114D114C2A682368012BCE
:10760C0006D962B630BF002AF8D0FFF773FFF4E753
:10761C0072B60C4C0C48FEF75BF90A250B48FEF7CA
:10762C0057F925600A48FEF753F90848FEF750F958
:10763C00256001F069F830BF002030BDA8000020A3
:10764C00B80000204C000020A09320002C8F2000BC
:10765C00BC9320002DE9F04172B6A24BDA68DA68CF
:10766C00D9681268D3F80CC002F11C018C4500F0EB
:10767C0096801968012900F0E080546A002C00F013
:10768C00B480956A002D00F0F380E560D2F828C034
:10769C000139CCF808401960916808600421116127
:1076AC0091490868013808609169002900F08980C7
:1076BC00916901240C61D2F818C0D868D86889493E
:1076CC000CF11C0578B30F68002F00F0A280D1F8E4
:1076DC0004800CF12006D8F80410DCF8200008F126
:1076EC0004048842C0F2E480D8F80C10002900F0A1
:1076FC00DF80D1F804E030680C1D864540F38380B0
:10770C00D4F800E0DCF82000864500F38A80996804
:10771C001C68CD60CCF8241001340021CCF8281062
:10772C001C609D6001E00C68CD60002191616D4989
:10773C00D86864B3D1F80CC04E680CF104077068BB
:10774C00DCF80410351D88427CDD3146D5F800E0AC
:10775C00DCF80400864536DD8868002800F0B5802A
:10776C000134C0F80CC0C1F808C0CCF80C10CCF82F
:10777C0008001C6054B1012C00F088805C6800206B
:10778C00E16859608860196801391960DC60DB6850
:10779C00104619680122FFF759FDBDE8F081196800
:1077AC00F9B101297BD0D3F804C00024DCF80CE03B
:1077BC000139C3F804E01960CEF80840C3F80CC0D6
:1077CC006AE71C68B3E799681C68C1F80CC0CCF870
:1077DC00081001340021CCF80C101C60C3F808C050
:1077EC00C8E78C46C3F80CC056E700293FF454AFE9
:1077FC00D3F804C00139DCF80CC01960C3F804C01C
:10780C00CCF8084048E7C86800283FF479AF014637
:10781C006FE7CCF82470CCF828700C604D608D604C
:10782C0083E78868002845D07C1CC5608D60CCF847
:10783C002810CCF824001C6077E70021596099606F
:10784C00196029E7F16829B97FE7C86800283FF477
:10785C007DAF0146D1F804E038680D1D8645F4DD96
:10786C00D5F800E0DCF8040086453FF775AFAAE7D1
:10787C0000293FF411AFD3F808C00139DCF808C077
:10788C001960C3F808C0CCF80C5005E700215C68FF
:10789C00996059601968DC600139196077E7D3F891
:1078AC0004C00021596099601960C3F80CC0F3E65C
:1078BC00414625E71C68CCF824000134CCF828801C
:1078CC00C8F808501C605D602FE71C68CCF80800F5
:1078DC000134CCF80C60C6F808C01C60C3F804C0B6
:1078EC0048E700BFA8000020B8000020F0B504460F
:1078FC0090B072B6374EF3681B6883423DD0A369D3
:10790C005BB3354D012335482B72FDF7E1FF34484D
:10791C00FDF7DEFF3348FDF7DBFF3348FDF7D8FFFB
:10792C003248FDF7D5FF3248FDF7D2FF3148FDF75D
:10793C00CFFF98216A4600232846FEF725F810ABA6
:10794C001818002300F8403C6846FDF7C1FF2A4890
:10795C00FDF7BEFF0A236F462B602369042B04D16D
:10796C0062B6A368186810B0F0BDF36801211B68FB
:10797C00A361A069FFF788FCF3E7174D01231748B3
:10798C002B72FDF7A5FF1D48FDF7A2FF1548FDF76B
:10799C009FFF1548FDF79CFF1448FDF799FF14480D
:1079AC00FDF796FF1348FDF793FF95216A460023D8
:1079BC002846FDF7E9FF10AB1818002300F8403CEF
:1079CC006846FDF785FF0C48FDF782FF0A236F46DA
:1079DC002B6094E7A80000204C000020EC8D2000C8
:1079EC00F8932000048E200058932000108E200065
:1079FC00EC932000708E20002C8F2000D893200058
:107A0C00F0B590B0EFF31084E4B25CBB4A4D0123A7
:107A1C002B724A48FDF75CFF4948FDF759FF49486E
:107A2C00FDF756FF4848FDF753FF4848FDF750FF58
:107A3C004748FDF74DFF4748FDF74AFF40F24D110F
:107A4C006A4623462846FDF79FFF10AB181800F82E
:107A5C00404C6846FDF73CFF3F48FDF739FF0A23D1
:107A6C006E462B603D4BDA681C681068DA68002C97
:107A7C0032D0D3F80CC05E680CF104077268DCF8E5
:107A8C000410351D914249DBF268002A46D0D2F829
:107A9C0004E03968151D8E4525DDD5F800E0DCF8CD
:107AAC0004108E4524DC9A681C68C2F80CC0CCF813
:107ABC00082001340022CCF80C201C60C3F808C04C
:107ACC004CB1012C21D05C680021E2685A609160B5
:107ADC001A68013A1A60DC60DB6801221968FFF74A
:107AEC00B5FB10B0F0BDD1680029D6D00A46CEE760
:107AFC009168A9B10134C1F80CC0C2F808C0CCF827
:107B0C000C20CCF808101C60DAE700225C689A6044
:107B1C005A601A68DC60013A1A60DDE73246BCE74D
:107B2C001C68CCF808100134CCF80C60C6F808C0FE
:107B3C001C60C3F804C0C3E74C000020EC8D20008F
:107B4C0004942000048E200058952000108E2000F4
:107B5C00EC932000708E20002C8F2000A8000020B9
:107B6C0000B572B6FFF74CFF00BD00BFC3680369D8
:107B7C0010B5012B18D00369B3B12C4BDA68D96856
:107B8C0000F11C0291421CD01A68012A29D0416ACA
:107B9C00002935D0846A002C3FD0CC60D0F828C0A6
:107BAC00013ACCF808101A600369012B01D062B6B7
:107BBC0010BD026A6FF000439A42F8D0FFF720FF25
:107BCC00F6E71A68CAB1012A10D059680024D1F816
:107BDC000CC0013AC3F804C01A60CCF80840D96054
:107BEC00E2E700225A609A601A60DDE759680022C9
:107BFC005A609A601A60D960D6E71146D960D3E70B
:107C0C00002AD1D0D3F804C0013ADCF80CC01A60B9
:107C1C00C3F804C0CCF80810C6E7002AC4D0996891
:107C2C00013A89681A609960CC60BDE7A800002011
:107C3C002DE9F04F5E4D90B00446EB68EFF31086E3
:107C4C00F6B2002E7BD02368002B76D0584F00263E
:107C5C004FF00108012B41D06268013BD1682360D1
:107C6C0061608E601268C2F81080EB68EB68566138
:107C7C0002F11C0C002B27D0D7F800A0BAF1000F92
:107C8C0031D0D7F8049002F1200ED9F80410136A01
:107C9C0009F1040099422FDD4B460068116A8842B5
:107CAC003DDCAB68C3F80CC053622B6896620133A1
:107CBC00C5F808C02B60FFF7A3FE72B62368002B33
:107CCC00C8D110B0BDE8F08FC7F80CC0FFF798FE14
:107CDC0072B62368002BF4D0012BBDD16268A6606C
:107CEC0066602660BEE756629662C7F80080C7F8E9
:107CFC0004C0C7F808C0E9E7D9F80C3023B9CBE7C2
:107D0C00D9680029C9D00B46D3F804B0DEF80010AE
:107D1C00181D8B45F4DD0068116A8842C1DD996835
:107D2C00002939D00AF1010AC1F80CC0C3F808C007
:107D3C0093625162C5F800A0C8E762B6C1E71D4F57
:107D4C0001233B721C48FDF7C3FD1C48FDF7C0FD29
:107D5C001B48FDF7BDFD1B48FDF7BAFD1A48FDF7A2
:107D6C00B7FD1A48FDF7B4FD1948FDF7B1FD40F217
:107D7C0035116A4633463846FDF706FE10AA13182D
:107D8C0003F8406C6846FDF7A3FD1248FDF7A0FD13
:107D9C000A23E8463B6056E72B6851620133C2F870
:107DAC002890C9F808C02B60C5F804C08EE700BF46
:107DBC00A80000204C000020EC8D20000494200032
:107DCC00048E200084952000108E2000EC9320005F
:107DDC00708E20002C8F2000F0B5054691B072B645
:107DEC0042F20C03C4F203031A684FF0000C22F0A9
:107DFC0001021A6042F20802C4F20D0210684FF040
:107E0C00FF3E40F00400106042F20C02C4F20D027E
:107E1C00106840F00400106042F20002C4F2030249
:107E2C00C2F800C042F20402C4F203020120106046
:107E3C0042F2280042F22402C4F20302C4F203000C
:107E4C00C0F800C0C2F800E01C6844F001041C60DB
:107E5C006FF000440460C2F800E01A6842F00102BE
:107E6C001A600B681093109B2B622B69002B4ED160
:107E7C0042F24803C4F2030371481E68FDF728FD63
:107E8C007048FDF725FD7048FDF722FD29466A462E
:107E9C006E48FDF7BFFD11AB1818002500F8445CC7
:107EAC006846FDF715FD6A48FDF712FD4FF6FF71A8
:107EBC00C7F6FF716A46891B2B466448FDF764FDC3
:107ECC0011AB181800F8445C6846FDF701FD6148D9
:107EDC00FDF7FEFCFFF794FD42F20C03C4F2030322
:107EEC001A686C4622F001021A6042F20803C4F2CE
:107EFC000D031A6822F004021A6042F20C03C4F259
:107F0C000D031A6822F004021A6011B0F0BD524B36
:107F1C0005F11C0EDA68DA68964541D01A68012A18
:107F2C0002BFC3F804C0C3F808C0C3F800C00AD02D
:107F3C00696A00295CD0A86A002865D0C860A86A64
:107F4C00013A81601A60D968D968434A29B3166826
:107F5C00D6B1576805F1200479682A6A07F1040C38
:107F6C0091422BDD3A46DCF80000296A884233DC6A
:107F7C009A68C2F80CE06A620022AA621A68C3F816
:107F8C0008E001321A6073E701236E62AE6213607F
:107F9C00C2F804E0C2F808E06AE7C2F80CE067E750
:107FAC001A68002A2DD0012A37D05968013AC868BE
:107FBC001A605860C0F808C0D960C4E7FA6822B9E2
:107FCC00D0E7D1680029CED00A465068216802F16A
:107FDC00040C8842F5DDC6E79168002926D00136ED
:107FEC00C1F80CE0C2F808E0AA6269621E603FE7C3
:107FFC00002AA8D05868013AC0681A60586081609D
:10800C00A1E71146D9609EE7002A9CD09968013AF5
:10801C0089681A609960C86095E75968C3F808C008
:10802C00C3F804C0C3F800C0D9608CE71A68696251
:10803C000132AF62C7F808E01A60C3F804E017E732
:10804C00049220004C942000109220005800002034
:10805C001492200018922000A80000202DE9F04175
:10806C00BD4C0646E36842F20C03C4F203031A68E3
:10807C00002022F001021A6042F20802C4F20D0242
:10808C0011684FF0010C41F00401116042F20C0236
:10809C00C4F20D02116890B041F00401116042F27B
:1080AC000002C4F20302106042F20402C4F20302A2
:1080BC0042F22801C2F800C0C4F2030142F22402C9
:1080CC000860C4F203024FF0FF301060D3F800E0F8
:1080DC004EEA0C0EC3F800E06FF0004EC1F800E061
:1080EC0010601A6842EA0C021A60EFF31087FFB2B4
:1080FC00002F00F0AC80E2686D461768E268E26819
:10810C0007F11C0C9445944B00F0D9801A68012A95
:10811C0000F0FF80796A002900F0F180B86A00282D
:10812C0000F0FC80C860B86A013A81601A60D6F829
:10813C00008003233B61B8F1000F7DD0726807F11A
:10814C00200E51683B6A101D994208DCD36833B18C
:10815C005968DEF80020181D914268DD1A46016846
:10816C003B6A994200F3BA80B36808F10108C3F87E
:10817C000CC0B368C6F800807B620023BB62C6F8F3
:10818C0008C042F24803C4F203037E617348D3F87B
:10819C000080FDF79DFB7248FDF79AFB7148FDF7D7
:1081AC0097FB39466A467048FDF734FC10AB18183B
:1081BC00002600F8406C6846FDF78AFB6B48FDF71B
:1081CC0087FB4FF6FF71C7F6FF71C8EB01016A46DA
:1081DC0033466548FDF7D8FB10AB181800F8406C17
:1081EC006846FDF775FB6248FDF772FBE3680122F8
:1081FC0019683846FFF72AF842F20C03C4F203035D
:10820C001A6822F001021A6042F20803C4F20D034C
:10821C001A6822F004021A6042F20C03C4F20D0335
:10822C001A6822F004021A6010B0BDE8F081DA6816
:10823C00002A93D013468BE70123C7F82480C7F894
:10824C0028803360C6F804C0C6F808C099E7DFF888
:10825C002481494888F808C0FDF73AFB4748FDF7E8
:10826C0037FB4748FDF734FB4648FDF731FB4648E2
:10827C00FDF72EFB4548FDF72BFB4548FDF728FB8A
:10828C006A4640F207113B464046FDF77DFB10ABBA
:10829C00181800F8407C6846FDF71AFB3D48FDF7BE
:1082AC0017FBE2680A231768E268E26807F11C0C06
:1082BC009445C8F800306D46274B7FF427AF1A68F9
:1082CC00D2B1012A34D059684FF0000EC868013A77
:1082DC0058601A60C0F808E0E16028E79368002B4A
:1082EC002DD008F10108C3F80CC0C2F808C0BA625E
:1082FC007B62C6F8008044E71146E16017E7002A6C
:10830C003FF415AF5868013AC0681A605860816034
:10831C000DE700225A609A601A6008E7002A3FF4C1
:10832C0006AF9968013A89681A609960C860FEE6E0
:10833C00596800225A609A601A60E160F7E67B6225
:10834C00736808F10108BB627368C6F80080C3F853
:10835C0008C0C6F804C014E7A8000020049220004E
:10836C005C942000109220005800002014922000F1
:10837C00189220004C000020EC8D2000049420006A
:10838C00048E20007C922000108E2000EC932000A4
:10839C00708E20002C8F20002DE9F041B84D064640
:1083AC00EB6842F20C03C4F203031A68002022F0BB
:1083BC0001021A6042F20802C4F20D0211684FF079
:1083CC00010C41F00401116042F20C02C4F20D02E6
:1083DC00116890B041F00401116042F20002C4F245
:1083EC000302106042F20402C4F2030242F22801BA
:1083FC00C2F800C0C4F2030142F224020860C4F2C5
:10840C0003024FF0FF301060D3F800E04EEA0C0E80
:10841C00C3F800E06FF0004EC1F800E010601A687D
:10842C0042EA0C021A60EFF31087FFB2002F00F043
:10843C0099806C463768002F47D0012F00F00581DA
:10844C0073680021DA68013F7260376091601F68C1
:10845C0001223A61E968E96800237B6107F11C0C91
:10846C00874B002900F0AD801968002900F0F380DB
:10847C005A6807F1200E51683B6A101D994211DCB5
:10848C00D3687BB15968DEF80020181D914208DCD6
:10849C00DA6832B113465968DEF80020181D914293
:1084AC00F6DD1A4601683B6A994240F3C180936835
:1084BC00002B00F0D880C3F80CC0C2F808C07B6257
:1084CC002B68BA6201332B607DE062B642F248033E
:1084DC00C4F203036B481D68FDF7FAF96A48FDF70F
:1084EC00F7F96A48FDF7F4F939466A466848FDF72A
:1084FC0091FA10AB181800F8407C6846FDF7E8F9C3
:10850C006448FDF7E5F94FF6FF71C7F6FF71491B9B
:10851C006A463B465E48FDF737FA10AB181800F870
:10852C00407C6846FDF7D4F95B48FDF7D1F942F27F
:10853C000C03C4F203031A6822F001021A6042F21F
:10854C000803C4F20D031A6822F004021A6042F206
:10855C000C03C4F20D031A6822F004021A6010B066
:10856C00BDE8F081DFF834814D4888F808C0FDF78C
:10857C00AFF94C48FDF7ACF94B48FDF7A9F94B485E
:10858C00FDF7A6F94A48FDF7A3F94A48FDF7A0F90B
:10859C004948FDF79DF940F21B116A463B4640469F
:1085AC00FDF7F2F910AB181800F8407C6846FDF79F
:1085BC008FF94248FDF78CF90A236C46C8F8003055
:1085CC0038E7C3F80CC042F24803C4F203032D4849
:1085DC001E68FDF77DF92C48FDF77AF92B48FDF75D
:1085EC0077F939466A462A48FDF714FA10AB181881
:1085FC00002500F8405C6846FDF76AF92548FDF750
:10860C0067F94FF6FF71C7F6FF71891B6A462B4657
:10861C001F48FDF7B9F910AB181800F8405C684614
:10862C00FDF756F91C48FDF753F9FFF7E9F97EE71A
:10863C00AB68C3F80CC0AB687B620023BB622B68D1
:10864C00C5F808C001332B60BDE700227368B26027
:10865C0072603260FBE67962B9621A60C3F804C0DA
:10866C00C3F808C0AFE77B626B68BB626B68C3F88A
:10867C0008C02B68C5F804C001332B60A3E700BF0A
:10868C00A8000020049220006C942000109220007E
:10869C005800002014922000189220004C0000205A
:1086AC00EC8D200004942000048E20007C9420008B
:1086BC00108E2000EC932000708E20002C8F200058
:1086CC00704700BF00B581B0EFF3038240F2D003D6
:1086DC0002F03F0201A8C2F2000340F8042D53F847
:1086EC0022306846984701B000BD00BF00B52DE9A7
:1086FC00F00FFFF7E7FFBDE8F00F00BD704700BFBC
:10870C0000B500F023F800BD49F2646000B5C0F27A
:10871C002000FDF7DDF848F62C70C0F22000FDF7C4
:10872C00D7F840F24C03C2F200030A221A604EF64C
:10873C000C53CEF20003196840F2040289B2C0F265
:10874C00FA5241EA02021A6000BD00BF2DE9F04165
:10875C0072B61E4D1E4E15F8014C4FF000081D4F01
:10876C008CB1092C2AD00A2C1BD03368204601333B
:10877C00336000F055F833684F2B08DC013515F8E1
:10878C00014C002CEDD1FFF7BFFFBDE8F0810D20AF
:10879C0000F046F80A2000F043F80135C6F80080D6
:1087AC00EDE70D2000F03CF8204600F039F83B686E
:1087BC00C6F8008001333B600135E0E7204600F04D
:1087CC002FF83368013508333360D8E779962000E9
:1087DC00C8000020CC00002030B5104C05462368A2
:1087EC0023B1DA68013ADA60DA688AB1636823B1D6
:1087FC005A682846DA601B699847A36823B11A7A2D
:10880C001AB91B692846984730BD5A68DA60F8E7F0
:10881C005A68DA601B699847E8E700BFD00100206E
:10882C00164B81B01B78C0B22BB3EFF31082144BF4
:10883C00D2B21A7072B649F238030321C4F208039B
:10884C00196049F29803C4F20803186049F2440312
:10885C00C4F20803196841F0010119600023009368
:10886C00009BFE2B05DC009B01330093009BFE2B31
:10887C00F9DD02B962B601B0704700BF7C00002080
:10888C007E0000204378053B1D2B10D8DFE803F059
:10889C0011570F0F400F0F0F0F0F0F0F0F0F0F0F61
:1088AC000F0F0F0F0F0F0F0F0F0F0F20226D002048
:1088BC0070470378002BFAD18378C27843EA0222FE
:1088CC0049F20003C4F208031A60364B03221A6003
:1088DC000120EDE70378A12BE9D18378C27853EA24
:1088EC000222E4D1304B19681A715A7162F31F01DC
:1088FC0008229A712D4A196013608379C27901207C
:10890C0043EA02222A4B072A28BF07221A60CFE724
:10891C000378002BCBD10379427953EA0222C6D1DA
:10892C008379C27953EA0222C1D18378C07843EAB1
:10893C0000200128BBD11B4B04221A60B8E7037836
:10894C00802BB4D1C378012B1ED0022BAFD1194A86
:10895C00164B1A608379C279012043EA0222144B28
:10896C00432A28BF43221A60A2E70378212B9ED109
:10897C008379C27953EA022299D182780E4B02F0A4
:10898C0001021A70012093E70C49084A11608279A0
:10899C00C179184642EA0121054A122928BF122141
:1089AC00116085E780000020E4010020E001002038
:1089BC00DC010020849120007D000020C891200063
:1089CC0049F2380370B5C4F208031C6849F2180365
:1089DC00C4F208031B6882B01BB113F0040F40F003
:1089EC00888049F20803C4F208031B68002B74D07A
:1089FC0013F0010F71D04A4B1A783AB9494A1278E0
:108A0C0022B101221A702020FFF70AFF49F2380325
:108A1C00C4F2080300221A6049F24403C4F20803AA
:108A2C001B6813F0010F2ED049F25803C4F208034F
:108A3C001B6849F28001DBB26846C4F208019A4215
:108A4C0006D2D1F800C000F802C00132082AF6D1D3
:108A5C006846FFF717FF70B1DFF8CCC0DCF80030C8
:108A6C00002B54D049F24403C4F208031A6842F0B4
:108A7C0040021A600CE049F24403C4F208031A687D
:108A8C0042F060021A60DFF8A0C0DCF8003023B3BB
:108A9C00264E3268C2B149F28005DCF80010002382
:108AAC00C4F20805C85C0133013A2860C818CCF838
:108ABC000000101E18BF01201F2B8CBF002000F0DF
:108ACC00010032600028EDD1B2B149F24403C4F286
:108ADC0008031A6842F002021A6049F21003C4F249
:108AEC0008031B6849F23803C4F208031C6002B087
:108AFC0070BDFDF7A9F874E749F24403C4F208030A
:108B0C001968CCF8002041F00A011960E5E749F238
:108B1C004403C4F208031A6842F048021A60DCE706
:108B2C007C0000207D000020E0010020DC01002002
:108B3C004F4B70B41D6847F6F833C2F200034FF484
:108B4C0080625A6000229A60DA60EA681B6002F563
:108B5C008062EA605A686B68002B52D047F6F83C8A
:108B6C00C2F2000C1E689444B4450CBF1A461A4657
:108B7C0004D0D26812B111688C45FAD147F6F8319D
:108B8C00C2F200010C6859687618B44208D0DB6850
:108B9C00002B35D0D3F800C0596861448C42F6D113
:108BAC0019461346BBB147F6F832C2F200025468BC
:108BBC00D3F804C0A444C2F804C02A68012A2ED0F9
:108BCC009C68002C39D0DE68002E2DD0E660DB6866
:108BDC00013A9C602A6039B147F6F833C2F20003BF
:108BEC005B684A68D3184B608546BFF36F8F5DF89E
:108BFC0004CB8CF30388BDE8FF5F00BD70BC7047ED
:108C0C0013462A6812BB47F6F831C2F200018A609B
:108C1C00CA606960A960012129601146C2E700237E
:108C2C006B60AB602B60D6E7002AD4D0AB68013AFE
:108C3C009B682A60AB60DE60CDE7002ACBD06B6806
:108C4C00013ADB682A606B609C60C4E7A96847F650
:108C5C00F83CC2F2000CC1F80CC0CCF80810013280
:108C6C000021CCF80C102A60C5F808C09AE700BFA8
:108C7C00740000200FF22C0C4DF804CD2DE9FF5F91
:108C8C00EFF3038C4DF804CDC0F800D08D46BFF344
:108C9C006F8F5DF804CB8CF30388BDE8FF5F5DF844
:108CAC0004CBE746704700BF40F2EC13C2F200035E
:108CBC0000221A605A609A60DA6070473D4B70B4BB
:108CCC001D6850F8043C041F0F2B41D9002240F8BA
:108CDC00044C6360A260E260EA68D318EB606B68D6
:108CEC0050F804CC6068002B35D01E686044B0424C
:108CFC000CBF1A461A4604D0D26812B111688842C9
:108D0C00FAD159687618B44507D0DB68002B21D00E
:108D1C001868596841188C45F7D11946134693B118
:108D2C0060685A6882186260286801281DD09A68A9
:108D3C00002A1FD0DE68002E31D0D660DB689A6026
:108D4C002B68013B2B6019B14A686368D3184B60E0
:108D5C0070BC704713462968B1B9A160E1602A68FC
:108D6C006C600132AC602A60D9E700236B60AB60A9
:108D7C002B60E8E70028E6D06B68DB686B609A60D4
:108D8C002B68013B2B60DEE7AA680021D460AA683F
:108D9C00E160A2602A68AC6001322A60BFE700285B
:108DAC00D1D0AB689B68AB60DE602B68013B2B605D
:088DBC00C9E700BF74000020AC
:108DC400074B10B51A6852B9064C01221A60636841
:108DD4002BB10434984754F8043F002BFAD110BD4A
:088DE40008000020B0962000F9
:108DEC00417373657274696F6E206661696C3A20A9
:108DFC00000000005F7369002C2066756E63746957
:108E0C006F6E3D002C2066696C653D002F686F6DA0
:108E1C00652F6C756361736D2F6465762F7061704F
:108E2C0065725F6D756C7469636F72652F736F75A6
:108E3C00726365732F65706F735F6C6F636B696EB4
:108E4C00675F70726F746F636F6C732F7473747071
:108E5C002F696E636C7564652F73797374656D2EF1
:108E6C00680000002C206C696E653D0073746174A1
:108E7C0069632045504F533A3A533A3A53797374D5
:108E8C00656D5F496E666F3C45504F533A3A533AA5
:108E9C003A436F727465785F4D3E2A20636F6E7330
:108EAC00742045504F533A3A533A3A537973746598
:108EBC006D3A3A696E666F2829000000545F530AB8
:108ECC0000000000545F450A000000004D5F530A8B
:108EDC00000000004D5F450A00000000524553554C
:108EEC004C5420666F722073656D6170686F72658B
:108EFC00206F6620747970652000000053656D61E9
:108F0C0070686F72655F4950435000002C205052BE
:108F1C004F43555245206F7065726174696F6E3A9C
:108F2C000A0000002020202020202020576F727380
:108F3C00742074696D653A20000000002020202008
:108F4C0020202020417665726167652074696D650B
:108F5C003A200000202020202020202054696D651C
:108F6C0072207469636B7320706572206F703A2085
:108F7C00000000000A0A00002C20564143415445D1
:108F8C00206F7065726174696F6E3A0A00000000A0
:108F9C0053656D6170686F726500000045504F53EA
:108FAC002053656D6170686F72652050726F746FBD
:108FBC00636F6C732042656E63686D61726B0A201F
:108FCC00457865637574696E672000002069746567
:108FDC00726174696F6E73206F662000204F50733E
:108FEC002065616368200A0A0000000053656D610A
:108FFC0070686F72655F50495000000053656D6179
:10900C0070686F72655F50435000000041524D769E
:10901C00375F4D4D553A3A616C6C6F632829206669
:10902C0061696C656421000044756520746F206C67
:10903C0061636B206F6620656E74726F70792C2083
:10904C0052616E646F6D2069732061207073657559
:10905C00646F2072616E646F6D206E756D626572E7
:10906C00732067656E657261746F72210000000079
:10907C0050757265205669727475616C206D6574DB
:10908C00686F642063616C6C65642100303132332D
:10909C003435363738396162636465660000000028
:1090AC0073746174696320766F69642045504F5303
:1090BC003A3A533A3A41524D76375F4D4D553A3A1A
:1090CC00667265652845504F533A3A533A3A4350C5
:1090DC00555F436F6D6D6F6E3A3A4C6F675F4164CD
:1090EC0064722C20756E7369676E656420696E748A
:1090FC00290000006E203E2073697A656F66202877
:10910C004C6973743A3A456C656D656E7429000050
:10911C002F686F6D652F6C756361736D2F64657649
:10912C002F70617065725F6D756C7469636F7265B9
:10913C002F736F75726365732F65706F735F6C6FD0
:10914C00636B696E675F70726F746F636F6C732F94
:10915C00747374702F696E636C7564652F617263C0
:10916C006869746563747572652F61726D76372FDB
:10917C006D6D752E6800000009024300020100A00D
:10918C001909040000010202010005240010010469
:10919C0024020205240600010524010001070582B2
:1091AC000340004009040100020A00000007058387
:1091BC000220000007050402000100001201000259
:1091CC0002000020501D1C60030000000001000084
:1091DC000000000000000000A5602000D16020000D
:1091EC00C560200000000000000000009960200015
:1091FC00E1602000615920007C7C000073656D5F8C
:10920C0076000000400000007C00000020746963C0
:10921C006B737C7C0A0000007372705F7600000038
:10922C007063705F76000000697063705F76000099
:10923C0073656D5F700000007069705F70000000F6
:10924C007372705F700000007069705F765F6F758D
:10925C00746572007069705F765F696E6E6572001E
:10926C00697063705F7000007063705F7000000065
:10927C0073746174696320766F69642045504F5331
:10928C003A3A533A3A5468726561643A3A736C6587
:10929C0065702845504F533A3A533A3A553A3A4F3B
:1092AC007264657265645F51756575653C45504FB8
:1092BC00533A3A533A3A5468726561642C204550DB
:1092CC004F533A3A533A3A5363686564756C696E16
:1092DC00675F43726974657269613A3A52522C2025
:1092EC0045504F533A3A533A3A553A3A4C6973749B
:1092FC005F456C656D656E74733A3A446F75626C5C
:10930C00795F4C696E6B65645F5363686564756CFB
:10931C00696E673C45504F533A3A533A3A54687227
:10932C006561642C2045504F533A3A533A3A536393
:10933C00686564756C696E675F43726974657269A0
:10934C00613A3A52523E203E2A290000696E74203E
:10935C0045504F533A3A533A3A5468726561643AFD
:10936C003A6A6F696E2829005468726561643A3AEA
:10937C0070617373203D3E207468726561642028AF
:10938C000000000029206E6F7420726561647921E1
:10939C0000000000546865206C617374207468725E
:1093AC006561642068617320657869746564210067
:1093BC005265626F6F74696E6720746865206D61A9
:1093CC006368696E65202E2E2E00000072756E6E1D
:1093DC00696E67282920213D20746869730000009C
:1093EC007468726561642E6363000000215F6A6FAC
:1093FC00696E696E670000006C6F636B6564282989
:10940C0000000000526573756D652063616C6C65BE
:10941C006420666F7220756E73757370656E64650B
:10942C0064206F626A656374210000005F7374616D
:10943C00746520213D2052554E4E494E4700000088
:10944C007468726561643A3A7072696F000000006A
:10945C007468726561643A3A736C656570000000FB
:10946C007468726561643A3A77616B657570000077
:10947C0073746174696320766F69642045504F532F
:10948C003A3A533A3A5468726561643A3A77616B86
:10949C006575702845504F533A3A533A3A553A3A13
:1094AC004F7264657265645F51756575653C4550B6
:1094BC004F533A3A533A3A5468726561642C2045DA
:1094CC00504F533A3A533A3A5363686564756C6932
:1094DC006E675F43726974657269613A3A52522CD5
:1094EC002045504F533A3A533A3A553A3A4C6973ED
:1094FC00745F456C656D656E74733A3A446F756252
:10950C006C795F4C696E6B65645F536368656475F9
:10951C006C696E673C45504F533A3A533A3A54682B
:10952C00726561642C2045504F533A3A533A3A5382
:10953C0063686564756C696E675F437269746572A4
:10954C0069613A3A52523E203E2A29007374617482
:10955C00696320766F69642045504F533A3A533A09
:10956C003A5468726561643A3A726573636865640B
:10957C00756C65282900000073746174696320762A
:10958C006F69642045504F533A3A533A3A546872D3
:10959C006561643A3A77616B6575705F616C6C28D4
:1095AC0045504F533A3A533A3A553A3A4F726465EA
:1095BC007265645F51756575653C45504F533A3A19
:1095CC00533A3A5468726561642C2045504F533AB3
:1095DC003A533A3A5363686564756C696E675F43D6
:1095EC00726974657269613A3A52522C2045504F37
:1095FC00533A3A533A3A553A3A4C6973745F456C5C
:10960C00656D656E74733A3A446F75626C795F4C34
:10961C00696E6B65645F5363686564756C696E67CE
:10962C003C45504F533A3A533A3A54687265616428
:10963C002C2045504F533A3A533A3A536368656479
:10964C00756C696E675F43726974657269613A3AE9
:10965C0052523E203E2A29004D616368696E653A7C
:10966C003A7265626F6F74282900000050414E49B0
:04967C0043210A007C
:10968000FFFFFFFF754220005D4320001D452000C5
:1096900045452000CD55200085582000B1602000B0
:1096A00039722000CD862000B58C2000000000001B
:0896B000FFFFFFFF00000000B6
:020000042000DA
:04000400FFFFFFFFFC
:040000050020411C7A
:020000040027D3
:0CFFD400FFFFFFEF000000000000200015
:00000001FF
